:020000040800F2
:1000000000040020A1010008311400083114000888
:1000100031140008311400083114000831140008AC
:10002000311400083114000831140008510600088A
:10003000311400083114000831140008F1080008D8
:1000400031140008A116000811160008E115000877
:100050003114000831140008711800084118000814
:1000600011180008E1170008B1170008710B00080B
:10007000410B0008110B0008E10A0008B10A000852
:10008000810A0008510A0008411C000831140008C8
:100090003114000831140008311400084117000819
:1000A000311400083114000831140008311400081C
:1000B000311400089114000831140008F11A0008E6
:1000C000511A0008311400083114000831140008D6
:1000D00031140008311A0008111A00083114000800
:1000E000D1160008711600084116000831140008E6
:1000F000311400083114000831140008211C0008D4
:1001000031140008311400083114000831140008BB
:1001100031140008311400083114000831140008AB
:10012000210A0008F1090008C10900089109000826
:1001300061090008011C000831140008311400088E
:100140009115000831150008011500083114000848
:10015000311400083114000831140008311400086B
:10016000311400083114000831140008311400085B
:10017000311400083114000831140008311400084B
:10018000311400083114000831140008311400083B
:10019000311400083114000831140008311400082B
:1001A00072B6334880F3098840F20000CCF20000B8
:1001B0004EF63471CEF200010860BFF34F8FBFF3EB
:1001C0006F8F40F20000C0F2F0004EF68851CEF280
:1001D00000010860BFF34F8FBFF36F8F4FF0000037
:1001E000E1EE100A4EF63C71CEF2000108600620E6
:1001F00080F31488BFF36F8F01F032F901F048FEED
:100200004FF055301B491C4A91423CBF41F8040B4A
:10021000FAE71A49164A91423CBF41F8040BFAE743
:100220001749184A184B9A423EBF51F8040B42F83E
:10023000040BF8E700201549154A91423CBF41F8EC
:10024000040BFAE701F004F9124C134DAC4203DA47
:1002500054F8041B8847F9E701F0CAFF0F4C104D12
:10026000AC4203DA54F8041B8847F9E701F0E8B818
:1002700000080020000000200004002000040020EE
:1002800068470008000800204C0C0020500C00209B
:100290000C1C0020A0010008A0010008A00100081B
:1002A000A0010008000000000000000000000000A5
:1002B0002DE9F04F2DED108AC1F80CD0D0F80CD0FC
:1002C000BDEC108ABDE8F08F002383F31188284627
:1002D000A047002001F05CF801F062F800DFFEE7C3
:1002E00081F0004102E000BF83F0004330B54FEAE7
:1002F00041044FEA430594EA050F08BF90EA020F54
:100300001FBF54EA000C55EA020C7FEA645C7FEAE6
:10031000655C00F0E2804FEA5454D4EB5555B8BF09
:100320006D420CDD2C4480EA020281EA030382EA7A
:10033000000083EA010180EA020281EA0303362D0C
:1003400088BF30BD11F0004F4FEA01314FF4801CDF
:100350004CEA113102D0404261EB410113F0004FF1
:100360004FEA03334CEA133302D0524263EB4303A8
:1003700094EA050F00F0A780A4F10104D5F1200E46
:100380000DDB02FA0EFC22FA05F2801841F10001A1
:1003900003FA0EF2801843FA05F359410EE0A5F175
:1003A00020050EF1200E012A03FA0EFC28BF4CF0A6
:1003B000020C43FA05F3C01851EBE37101F000455C
:1003C00007D54FF0000EDCF1000C7EEB00006EEB69
:1003D0000101B1F5801F1BD3B1F5001F0CD34908F3
:1003E0005FEA30004FEA3C0C04F101044FEA44524A
:1003F00012F5800F80F09A80BCF1004F08BF5FEAD1
:10040000500C50F1000041EB045141EA050130BDB0
:100410005FEA4C0C404141EB010111F4801FA4F153
:100420000104E9D191F0000F04BF01460020B1FAA8
:1004300081F308BF2033A3F10B03B3F120020CDAE0
:100440000C3208DD02F1140CC2F10C0201FA0CF0BE
:1004500021FA02F10CE002F11402D8BFC2F1200C23
:1004600001FA02F120FA0CFCDCBF41EA0C019040D9
:10047000E41AA2BF01EB0451294330BD6FEA040422
:100480001F3C1CDA0C340EDC04F11404C4F120020D
:1004900020FA04F001FA02F340EA030021FA04F31F
:1004A00045EA030130BDC4F10C04C4F1200220FA76
:1004B00002F001FA04F340EA0300294630BD21FAB4
:1004C00004F0294630BD94F0000F83F4801306BF7A
:1004D00081F480110134013D4EE77FEA645C18BF6E
:1004E0007FEA655C29D094EA050F08BF90EA020F05
:1004F00005D054EA000C04BF1946104630BD91EAFD
:10050000030F1EBF0021002030BD5FEA545C05D1FF
:100510004000494128BF41F0004130BD14F580043E
:100520003CBF01F5801130BD01F0004545F0FE41B2
:1005300041F470014FF0000030BD7FEA645C1ABFE7
:10054000194610467FEA655C1CBF0B46024650EA1E
:10055000013406BF52EA033591EA030F41F400214A
:1005600030BD00BF90F0000F04BF0021704730B5D0
:100570004FF4806404F132044FF000054FF00001A5
:1005800050E700BF90F0000F04BF0021704730B566
:100590004FF4806404F1320410F0004548BF40423B
:1005A0004FF000013EE700BF42004FEAE2014FEA90
:1005B00031014FEA02701FBF12F07F4393F07F4F6B
:1005C00081F06051704792F0000F14BF93F07F4F9D
:1005D000704730B54FF4607401F0004521F00041E0
:1005E00020E700BF50EA010208BF704730B54FF066
:1005F00000050AE050EA010208BF704730B511F06B
:10060000004502D5404261EB41014FF4806404F1A2
:1006100032045FEA915C3FF4DCAE4FF003025FEA24
:10062000DC0C18BF03325FEADC0C18BF033202EBAC
:10063000DC02C2F1200300FA03FC20FA02F001FA06
:1006400003FE40EA0E0021FA02F11444C1E600BFA5
:10065000064A536823F001035360EFF309836833BC
:1006600083F30988002383F31188704730EF00E09B
:10067000202383F311880949094AC31D12680868B9
:1006800023F00703121A9A4228BF1B184FF00002EA
:100690002CBF0B60104682F311887047581200205F
:1006A00064120020000000000000000000000000B4
:1006B00010B50B461B688B4204D09C68826894423C
:1006C000F8D219464B68016043601860486010BD5D
:1006D000FEE7000000000000000000000000000035
:1006E0000C4B18689969026810B553601A600122B2
:1006F000027700220A778A6898611B689C68944296
:10070000FBD85A680B604A60BDE810401160596020
:10071000FFF7CEBD001A002000000000000000001E
:10072000F0B5254F467A3C680546012000FA06FEE2
:100730001EEA040F3ED1214840F8362000EBC600E7
:1007400043604EEA0403580618BF1D4C3B601EBFB1
:10075000606940F00100606113F4786F18BF1848B9
:100760006C681EBF436943F0020343612B6818683D
:1007700020F00F0018602E7A0F20B040206000207B
:100780001860B2B1AB7A03F01F0203F160445B0959
:1007900004F5614409019B00C9B203F1604384F888
:1007A000001303F5614301219140C3F880111960E2
:1007B000F0BD1046F0BD00BF800E0020200E0020CE
:1007C00000100240000000000000000000000000D7
:1007D00010B5202282F31188204B002908BF19464A
:1007E000037A012B1CD11E4B984209D11D4CA369E1
:1007F00043F48043A3611C4BC02483F825430CE0E1
:100800001A4B98420CD1174AD36943F40033D36191
:10081000154BC02283F826234022C3F884215A6056
:10082000436F0C68826FB2FBF4F292B2DA608A68AE
:1008300042F040025A60CA6842F001029A604A6877
:1008400042F4967242F001021A604FF0FF321A62CF
:1008500002230372002383F3118810BD403C00087B
:10086000880E00200010024000E100E0040F00208C
:10087000202383F31188174B5B6813F4006326D0A1
:10088000F1EE103AEFF309834FF0807243F84C2CED
:10089000114AD26843F8082CA3F1680282F3098850
:1008A0000E4988690A688168C07F926820B18A42CF
:1008B00094BF0022012203E08A4234BF00220122B9
:1008C0000AB1074A00E0074A43F8502C704783F307
:1008D0001188704700ED00E030EF00E0001A0020C2
:1008E000D9020008DC02000800000000000000003F
:1008F00070B5202383F31188144CA269D37F0BB108
:10090000013BD377A36AE2690133A362104B9A4299
:100910001D4606D1002383F31188BDE87040FFF720
:10092000A7BF9368013B9360E3699A68002AF1D1FD
:1009300019680648DE68DA604D60C16182F311888B
:100940001869B047202383F31188EDE7001A0020CF
:100950001C1A002000000000000000000000000041
:1009600008B5074B1968C1F303410A045A60054AE8
:10097000936D0BB1D06D9847BDE80840FFF778BF85
:1009800000040240200E00200000000000000000D3
:1009900008B5074B1968C1F303310A035A60054AC9
:1009A000136D0BB1506D9847BDE80840FFF760BF6D
:1009B00000040240200E00200000000000000000A3
:1009C00008B5074B1968C1F303210A025A60054AAA
:1009D000936C0BB1D06C9847BDE80840FFF748BF57
:1009E00000040240200E0020000000000000000073
:1009F00008B5074B1968C1F303110A015A60054A8B
:100A0000136C0BB1506C9847BDE80840FFF730BF3E
:100A100000040240200E0020000000000000000042
:100A200008B5074B074A196801F00F015960936B2D
:100A30000BB1D06B9847BDE80840FFF719BF00BF66
:100A400000040240200E0020000000000000000012
:100A500008B5074B1968C1F303610A065A60054AD5
:100A6000136B0BB1506B9847BDE80840FFF700BF10
:100A700000000240200E00200000000000000000E6
:100A800008B5074B1968C1F303510A055A60054AB6
:100A9000936A0BB1D06A9847BDE80840FFF7E8BEFB
:100AA00000000240200E00200000000000000000B6
:100AB00008B5074B1968C1F303410A045A60054A97
:100AC000136A0BB1506A9847BDE80840FFF7D0BEE3
:100AD00000000240200E0020000000000000000086
:100AE00008B5074B1968C1F303310A035A60054A78
:100AF00093690BB1D0699847BDE80840FFF7B8BECD
:100B000000000240200E0020000000000000000055
:100B100008B5074B1968C1F303210A025A60054A58
:100B200013690BB150699847BDE80840FFF7A0BEB4
:100B300000000240200E0020000000000000000025
:100B400008B5074B1968C1F303110A015A60054A39
:100B500093680BB1D0689847BDE80840FFF788BE9E
:100B600000000240200E00200000000000000000F5
:100B700008B5074B074A196801F00F01596013685F
:100B80000BB150689847BDE80840FFF771BE00BF41
:100B900000000240200E00200000000000000000C5
:100BA0000E4BC1685A680E4B30B55C6F8368D31A20
:100BB0001B1BD0E9044542688360E41845F1000539
:100BC00001319342C160C0E9044501D9436030BDA1
:100BD0000268934238BF036030BD00BF001000E0E0
:100BE000001A0020000000000000000000000000CB
:100BF000014B5B6883607047001000E0000000005C
:100C0000074B996910B50877186804681C600122C1
:100C1000CA7763600277BDE810409861FFF748BB70
:100C2000001A00200000000000000000000000008A
:100C300070B54B1C86B00646184C28D0A3690593A6
:100C4000174B0493E3699A688A4202D2891A1B6897
:100C5000F9E75868029001AA019302605A60039173
:100C60009A68511A99604FF0FF3530466562FFF778
:100C7000C7FF049B6BB1019B039A99680A449A6071
:100C8000029A1360019B5A60044B5D6201E0FFF71A
:100C9000B7FFA369186A06B070BD00BF001A002034
:100CA000E113000800000000000000000000000048
:100CB00049B1064B42689B6918605A6013604360F3
:100CC0000420FFF7B5BF4FF0FF307047001A002037
:100CD0002DE9F047994604460E461746D0F81C8089
:100CE000202383F311880025D4F808A0BAF1000F5F
:100CF00008D120464946FFF7DBFF0028F4D08AF3ED
:100D0000118820E0A368013BA36063695A1C6261FB
:100D100032781A70236962699A4224BFE36863617A
:100D200006F1010AB8F1000F01D02046C0470023A8
:100D300083F31188013F05F1010504D0202383F3DB
:100D400011885646D0E72846BDE8F087000000002D
:100D50003030FFF7BDBF00000000000000000000C1
:100D600030304FF0FF33FFF7B3BF0000000000004A
:100D7000F8B504460E461746202383F31188A5686C
:100D800045B920463946FFF793FF0028F7DA85F387
:100D90001188F8BDA368013BA36063695A1C6261B6
:100DA0001E70236962699A4224BFE3686361E36944
:100DB0000BB120469847002080F31188F8BD000051
:100DC0003030FFF7D5BF0000000000000000000039
:100DD00030304FF0FF32FFF7CBBF000000000000C3
:100DE0002DE9F047994604460F469046C6692023F0
:100DF00083F3118800250EB12046B047D4F808A02F
:100E0000BAF1000F08D120464946FFF751FF0028EC
:100E1000F4D08AF3118817E0A368013BA360A369AB
:100E20005A1CA2611B787B552369A2699A4224BF90
:100E3000E368A361002383F311880135A84503D03B
:100E4000202383F31188D6E72846BDE8F087000009
:100E50000C30FFF7C5BF00000000000000000000DC
:100E60000C304FF0FF33FFF7BBBF00000000000065
:100E700070B5202304460E4683F31188C36903B17D
:100E80009847A56845B920463146FFF711FF00286D
:100E9000F7DA85F3118870BDA368A269013BA360EE
:100EA000531CA36110782269934224BFE368A361B5
:100EB000002383F3118870BD0000000000000000D3
:100EC0000C30FFF7D5BF000000000000000000005C
:100ED0000C304FF0FF31FFF7CBBF000000000000E7
:100EE00008B50146202383F311880820FFF7A0FEF0
:100EF000002383F3118808BD0000000000000000FB
:100F0000002303778268054B1B6899689142FBD2E6
:100F10005A6803604260106058607047001A0020F1
:100F200070B5046805460E46AC421ED0E3683343F4
:100F3000E36016B12269134215D06068A368426B62
:100F40001343027F43630A2A03D1026A134206D184
:100F500009E00B2A07D1026A1340934203D1002310
:100F60000362FFF7CDFF2468DEE770BD00000000DC
:100F700070B5174C0346A169202282F31188C2681C
:100F800000688A6398421DD0CD6B42B116689642C4
:100F900003D0B668B54238BF3546D268F5E7026877
:100FA0008D601A605360826BDA6098608363FFF72C
:100FB000A7FF2268A36992689B689A4204D9FFF749
:100FC0008FFB01E000238360002383F3118870BD51
:100FD000001A0020000000000000000000000000D7
:100FE00070B52023064683F311881F4B84689D69E2
:100FF000002C31D0AB68A2689A4224D2A360237F30
:10100000062B0BD0072B15D0EBB994E80C001A6017
:10101000226820465360FFF773FF14E094E80C0049
:101020001A602268216A53602046FFF741FB236A59
:101030009C68DFE794E80C001A602268216A53601C
:101040002046FFF735FB28463146FFF731FB2E627D
:101050000620FFF7D5FD03E0AB6B8560C360A86396
:10106000002383F3118870BD001A002000000000E7
:10107000F8B52021044681F31188837F013BDBB260
:101080008377002282F31188002B5AD1027F0F2A26
:1010900057D1427F02F00302012A02D0022A43D034
:1010A000F8BD436902691A610269536150F8086C1E
:1010B00006F108071036A0F108053046FFF790FF4B
:1010C0003B46BB421A6801D09D4226D90AB19542DF
:1010D00023D254F8040C44F8082C1D6000F10801D8
:1010E00054F8087C6A18BA4201BF526812180832D4
:1010F00044F8042C586804BF6A5844F8082C00F1DE
:10110000080119448D420AD154F8042C02440832D3
:101110005A6054F8082C1A6001E01346D1E73046B3
:10112000BDE8F840FFF724BF4269006910612069FB
:101130004261226C81F3118811682160146083F38D
:101140001188F8BD00000000000000000000000051
:1011500003682BB10022026019621846FFF7D0BE67
:1011600070470000000000000000000000000000C8
:10117000036970B504460D46002B7ED0CE061FD500
:10118000436B1B685B68DBB100F0FAFE23699B6868
:101190004BB1052222702046012198472378052B68
:1011A00004BF0223237000262661202383F31188C5
:1011B0004FF0FF3104F11400FFF7CAFF86F31188E6
:1011C00029061CD5204600F0DBFE23699B684BB145
:1011D000052222702046022198472378052B04BF60
:1011E0000223237000262661202383F311884FF009
:1011F000FF3104F11400FFF7ABFF86F31188EA0515
:101200001CD5204600F0BCFE23699B684BB105222B
:1012100022702046032198472378052B04BF022320
:10122000237000262661202383F311884FF0FF31BD
:1012300004F11400FFF78CFF86F31188AB051CD571
:10124000204600F09DFE23699B684BB10522227069
:101250002046042198472378052B04BF02232370DE
:1012600000252561202383F311884FF0FF3104F11D
:101270001400FFF76DFF85F3118870BD00000000BA
:1012800070B50E0704461CD500F07AFE23699B68F2
:101290004BB1052222702046002198472378052B68
:1012A00004BF0223237000252561202383F31188C6
:1012B0004FF0FF3104F11400FFF74AFF85F3118866
:1012C00070BD0369002B3BD08D072FD51A787AB1FA
:1012D0005D68002D34D0C268012A85BF5B888168B3
:1012E0008168520884BF534301EB43012B4624E03D
:1012F00000F046FE23695B6843B104222270204659
:10130000A168E26898472378042B03D10223237055
:1013100000232361202383F31188002104F11400AA
:10132000FFF716FF002383F3118870BD4A0707D526
:101330005B682BB1C26881685208BDE870401847ED
:1013400070BD000000000000000000000000000070
:101350000E4B10B59C692062234653F8240F984227
:1013600004D003686362FFF7CBFDF5E7637F9B075B
:1013700001BF636922691A6122694FF00F0008BF3B
:101380005361BDE81040FFF73BBC00BF001A0020CE
:10139000202383F31188FFF7DBBF0000000000006B
:1013A00038B50C4CA569EB7F83B923681A682260B5
:1013B000546001221A772846EA77A361FFF7A0FD5F
:1013C000A0692946BDE83840FEF772BFBDE8384045
:1013D000FFF786B9001A002000000000000000009E
:1013E00008B5202383F31188027F0023072A11D830
:1013F000DFE802F0161010040B07100B026A1360EE
:1014000008E0026A93680133936090E80C001A6068
:10141000026853604FF0FF330362FFF771FD002352
:1014200083F3118808BD00000000000000000000E8
:10143000FEE70000000000000000000000000000C7
:10144000FEE70000000000000000000000000000B7
:1014500070470000000000000000000000000000D5
:1014600070470000000000000000000000000000C5
:10147000024A136843F08003136070470044004041
:10148000024A136843F0800313607047003801403C
:1014900038B5174CA3691A69DD681540EAB2D24322
:1014A0001A61AB0704D563681B690BB120469847E6
:1014B000680704D563689B690BB10D4898472907F5
:1014C00004D563681B6A0BB109489847EA0604D53E
:1014D00063689B6A0BB106489847EB0704D56368BD
:1014E0009B680BB102489847BDE83840FFF7C0B988
:1014F000F0110020000000000000000000000000CB
:1015000008B50648064B02225A6343682121D3F8E6
:101510000C319847BDE80840FFF7AAB9E811002050
:101520000004014000000000000000000000000076
:1015300038B5134B5A6902F0404512F0804F5D6197
:101540001C4605D00F4843681E21D3F8F430984755
:10155000002D05DA0B4843681F21D3F8FC3098476B
:10156000636B03F0010363632BB1064843682021DA
:10157000D3F804319847BDE83840FFF779B900BF88
:1015800000040140E81100200000000000000000FD
:10159000104A114B10B554692340A102536105D57F
:1015A0000E4843681521D3F8AC309847620205D540
:1015B0000A4843681621D3F8B4309847A30005D5EC
:1015C000064843681D21D3F8EC309847BDE8104029
:1015D000FFF74EB90004014000006020E811002030
:1015E00008B50748074B4FF480125A61436814212D
:1015F000D3F8A4309847BDE80840FFF739B900BFD9
:10160000E81100200004014000000000000000007C
:1016100008B50748074B4FF400225A61436813216D
:10162000D3F89C309847BDE80840FFF721B900BFC8
:10163000E81100200004014000000000000000004C
:1016400008B50748074B4FF480225A6143681221BE
:10165000D3F894309847BDE80840FFF709B900BFB8
:10166000E81100200004014000000000000000001C
:1016700008B50748074B4FF400325A6143681121FF
:10168000D3F88C309847BDE80840FFF7F1B800BFA9
:10169000E8110020000401400000000000000000EC
:1016A00008B50748074B4FF480325A614368102150
:1016B000D3F884309847BDE80840FFF7D9B800BF99
:1016C000E8110020000401400000000000000000BC
:1016D000194B10B55C6904F47C425A61620504D56B
:1016E000164843680A215B6D9847230504D51348C3
:1016F00043680B21DB6D9847E00404D50F4843682D
:101700000C215B6E9847A10404D50C4843680D2159
:10171000DB6E9847620404D5084843680E215B6F6E
:101720009847230404D5054843680F21DB6F984789
:10173000BDE81040FFF79CB800040140E81100200C
:10174000164B10B55C6904F478725A61A30604D58F
:10175000134843680521DB6A9847600604D51048A2
:10176000436806215B6B9847210604D50C48436803
:101770000721DB6B9847E20504D509484368082137
:101780005B6C9847A30504D5054843680921DB6CC9
:101790009847BDE81040FFF76BB800BF0004014058
:1017A000E811002000000000000000000000000020
:1017B00008B50648064B10225A61436804215B6A4B
:1017C0009847BDE80840FFF753B800BFE811002074
:1017D00000040140000000000000000000000000C4
:1017E00008B50648064B08225A6143680321DB69A5
:1017F0009847BDE80840FFF73BB800BFE81100205C
:101800000004014000000000000000000000000093
:1018100008B50648064B04225A61436802215B69F9
:101820009847BDE80840FFF723B800BFE811002043
:101830000004014000000000000000000000000063
:1018400008B50648064B02225A6143680121DB684D
:101850009847BDE80840FFF70BB800BFE81100202B
:101860000004014000000000000000000000000033
:1018700008B50648064B01225A61436800215B689F
:101880009847BDE80840FEF7F3BF00BFE81100200D
:101890000004014000000000000000000000000003
:1018A0002DE9F041466F3768F56935622A0704462D
:1018B00019D015F0080F0CBF00218021EB0748BF9D
:1018C00041F02001A80748BF41F040016A0748BF26
:1018D00041F48071202383F31188201DFFF720FB42
:1018E000002383F31188EB050AD5202383F31188A5
:1018F0004FF40071201DFFF713FB002383F31188C1
:10190000A8062FD5202383F31188B6F824806369B5
:101910005FFA88F81BB9201D0421FFF701FB236A39
:10192000626A934202D16269002A5BD16269013224
:1019300062615A1C226283F80080226AE3699A423B
:1019400001D3A3692362E06804F10C02904206D03F
:101950000368E3605A6000230362FFF7D1FA0023B3
:1019600083F3118839062AD52A0628D5202383F344
:101970001188A36C626C9A4202D1A26B002A36D104
:10198000A26B0132A2635A1CA26493F80080236CFC
:101990009A4201D3E36BA364206B04F130029042BE
:1019A00006D0036823635A6000230362FFF7A8FA96
:1019B0001FFA88F8A6F82880002383F311886B06A5
:1019C00024D5202383F31188626CA36C9A4201D141
:1019D000A36BB3B927F040073760002383F3118866
:1019E000BDE8F081201D8021FFF79AFAB7E7201D9E
:1019F0000821FFF795FA27F0C00343F04003336056
:101A0000DAE7201D1021FFF78BFAE3E7BDE8F0814C
:101A100008B50348FFF744FFBDE80840FEF728BFBC
:101A2000040F002000000000000000000000000083
:101A300008B50348FFF734FFBDE80840FEF718BFBC
:101A4000880E0020000000000000000000000000E0
:101A500038B5224B196B8A6902F47C50C861D96A87
:101A60000C68206820F00F0020600C7A48680F2175
:101A700001FA04F40460986A05682C6824F00F04E5
:101A80002C604468007A81402160D40542BF996887
:101A900041F001019960900542BF996841F002014F
:101AA0009960510542BF996841F008019960D204DC
:101AB00042BF9A6842F020029A609B6853B120238B
:101AC00083F3118806486FF00101FFF741FB002303
:101AD00083F31188BDE83840FEF7CABED81B00204A
:101AE000F41B0020000000000000000000000000C7
:101AF00038B5404C256BAB6903F0FE02D906EA61AC
:101B000029D5E36A19680A6822F00F020A60197A77
:101B10005A680F2303FA01F11160A26A1068016884
:101B200021F00F0101605168127A93400B60A368A5
:101B300043F00403A3606B6843F480436B602B683D
:101B400023F046032B60202383F311886FF00101FB
:101B500004F11C0045E01A0608D52378032B02D1B6
:101B600001F0B6FD42E001F033FE3FE05B063DD5FB
:101B70002378032B1DD1E36A19680A6822F00F024B
:101B80000A60197A5A680F238B401360A36A1B6896
:101B90005B68CBB101F01CFEA36A1A68136843F0BE
:101BA000010313606B6843F400536B6004232370DC
:101BB0001CE0A36A19680A6822F00F020A60197A09
:101BC0005A680F238B4013606B6843F480436B604B
:101BD0002B6823F040032B60202383F311880648F1
:101BE0000021FFF7B5FA002383F31188BDE83840E0
:101BF000FEF73EBED81B0020F41B002000000000B2
:101C000008B5054B054819681960FFF7B1FABDE83A
:101C10000840FEF72DBE00BF00050050181200203E
:101C200008B5054B054819681960FFF7A1FABDE82A
:101C30000840FEF71DBE00BF00040050181200202F
:101C40004FF0A040064A08B50368116819430160C7
:101C500011600448FFF78CFABDE80840FEF708BEA3
:101C600000010050C019002000000000000000002A
:101C70002DE9F04F0B4687B0834615464FF000091B
:101C800019785F1C002900F0E680252908D0DBF8D0
:101C9000003058469B68984709F101093B46EFE739
:101CA0005A782D2A04BF9F1C4FF0010A97F8008034
:101CB00018BF4FF0000AB8F1300F0CBF01374FF0DA
:101CC0002008002617F8013BA3F13002D2B2092AFE
:101CD00003D92A2B05D12A7804350A2303FB0626CB
:101CE000F0E72E2B4FF000020ED117F8013BA3F1C5
:101CF0003001C9B2092903D92A2B05D12978043525
:101D00000A2303FB0212F0E703F0DF014C2903D1A1
:101D1000397809B101370B46632B08D12B1D06AC6E
:101D200001932B6804F80C3D4FF020080BE061D8BC
:101D30004F2B61D00AD9552B63D0582B6BD006ACF2
:101D4000019504F80C3D0DF10D0012E0442B5ED11D
:101D500029682B1D00290193BFBF2D238DF80C305E
:101D600049420DF10D00A8BF03A80A2201F088FD29
:101D700003AC051B761B26EAE676BAF1000F1DD1EF
:101D80007642DEB121782D290BD1B8F1300F08D180
:101D9000DBF8003058469B689847013409F1010987
:101DA000013DB246DBF8003058469B6841469847F3
:101DB0001AF1010AF6D1C6EB09095646AA46BAF14C
:101DC000010A07D4DBF8003014F8011B9B68584661
:101DD0009847F4E7002DA8BFA944344614B9B1448C
:101DE000019D5BE7DBF8003058469B684146984709
:101DF000013CF3E76F2B01D1082203E00DD9752BCD
:101E000007D10A222B1D0193296803A8AEE7492BAD
:101E100006E0782B06D11022F4E7642B98D0692BCA
:101E200096D08CE7732B8AD12B1D01932C680C4B19
:101E3000002C08BF1C4647F6FF73002A08BF1A464D
:101E40002244204603781BB1904201D00130F9E7CB
:101E50004FF020088DE7484607B0BDE8F08F00BF7F
:101E6000503C0008000000000000000000000000DE
:101E70000EB403B503AA52F8041B0192FFF7F8FE53
:101E800002B05DF804EB03B07047000000000000F2
:101E9000234B1A6842F001021A601968204A890728
:101EA000FBD5516821F003015160516851605968B8
:101EB0001B4A11F00C01FAD1106800F0F900106013
:101EC0005160116841F4803111601A68144990031F
:101ED000FBD54A6A42F001024A62596A104A8907F0
:101EE000FBD51049516042F20111D16230211163DA
:101EF000116841F0807111601A6809499201FBD59F
:101F0000094A112010604A6842F002024A605A6889
:101F1000034902F00C02082AF9D10B6B0B637047DE
:101F20000010024000245100002002400000000088
:101F3000084B01221A7000225A605A61DA61064A7F
:101F40001A63064A9A6203F10C010C3AD9601961CE
:101F5000DA627047D81B002000540040483D00085A
:101F60004B6843608B688360CB68C3600B694361D7
:101F70004B6903628B6943620B6803607047000022
:101F8000436B19680A6822F00F020A60197A5A68CE
:101F90000F238B401360C36A9A68510706D59A686D
:101FA00042F010029A609A68D206FCD47047000092
:101FB00008B5044B044A9B699A614FF49670FEF78A
:101FC0008FFFFAE7001A0020E03D00080000000043
:101FD000754E8FB5B369754A75489A61FFF700F879
:101FE0007348FEF7C5FF7248724F734CFEF7F8FF57
:101FF000F5238DF8083000230093402002A9012228
:102000008DF8093001F084FB386050B16B4BA46847
:102010001C6001F005FA40230246009368486949B4
:1020200088E04FF09708202383F3118800230422CF
:10203000A3602270256B83F31188A36A226A1B6850
:102040000DF10C091A600322C3F80C905A60B26AB1
:10205000202383F31188AB69190408D5B36A9B1A4E
:10206000B3F5FA7F2CD2002383F31188F0E762687E
:10207000236B9268DFF840A1120554BF80224022F2
:102080005A6001F0A5FBA36A1A68136843F00103C4
:1020900013602B6843F040032B606B6843F40053DC
:1020A0006B60B369E3610AF11C021A620320282104
:1020B000FEF7BEFD431C6FD16A6842F480426A603D
:1020C000052323704FF0FF30002383F3118838601D
:1020D00090BB9DF80D209DF80C309FED3B7A9FED55
:1020E0003B8A42EA032307EE903AF8EE677A384BD0
:1020F00067EE877AB9EE087AA7EE887A402002A9BF
:10210000012283ED007AE0238DF8083002238DF858
:10211000093000934B4601F0FBFA264B1860F0B1F2
:10212000264BA4681C6001F07BF940230246294934
:1021300023480093234633E0204DA3682B600A20F8
:10214000FEF7CEFEB8F101087FF46DAF01F068F93B
:10215000402300930246204919482B6820E09DF84F
:102160000C209DF80D309FED1D7A43EA022307EE07
:10217000903AF8EE677A1A4B67EE877A9FED197AF4
:10218000A7EE887A83ED007A0948FEF7F1FE42F661
:102190000410FEF7A5FE26E702238AF8003093E735
:1021A00000F0CEFEF0E700BF001A0020EF3D00086F
:1021B000E41B0020800F0020D81B00200C12002000
:1021C000880E0020FD3D00080000FA420000803724
:1021D00010120020323E0008613E000852B82F4322
:1021E0006012002066663BC2000000000000000094
:1021F0002DE98048B24F4FF0FF32BB6ABA6200232C
:10220000BB6239693A613B61F968FA60FB60FA695F
:10221000AC4942F08052FA610A6842F480720A6066
:102220003A6A02F44072B2F5007F1EBF4FF480326A
:102230003A623B623A6AA24B10045FBF1A6A42F4E8
:1022400000721A621A6A5CBF42F400421A629E4A25
:1022500000238DB013600C225A439C4C1259002568
:1022600015609B4A42F8335001330C2BF3D1994B44
:10227000994A9A499A4EDFF8E892DFF8E8A2DFF827
:1022800040B24FF0FF38C3F80480C3F80484BB6940
:1022900043F00103BB61136843F0200313607B69C3
:1022A00043F4FC037B614FF09040FFF759FE8D48EB
:1022B0008D49FFF755FE8D488D49FFF751FE8D483A
:1022C0008D49FFF74DFE8D488D49FFF749FE8D483A
:1022D0008D49FFF745FE06F11803B361F3618B4B9F
:1022E000B3624FF0A043F36203F5807333630122BE
:1022F000502142F68A204FF480233270B063746319
:102300007560B560F56035617561356289F81213E5
:10231000C9F88031C9F800307D4B03F1180EC3F8BD
:1023200018E0C3F81CE0DFF840E2C3F828E0AEF59F
:10233000407EC3F82CE084340EF5807EC3F830E094
:102340001A7098635D609D60DD601D615D611D6256
:102350005C634FF4004389F82F13C9F88431C9F83E
:1023600004304FF0005389F83D13C9F88431C9F89F
:102370000430684B04921A705D60FFF7D9FD664B1C
:10238000049A664C66481A7004211974654999616B
:10239000654905925D60DD6001F01AF9604A634BA2
:1023A000634953672046C2F878A001F011F9614BE8
:1023B0006367614BC4F878A041F2BF2159600721DF
:1023C0009D601960802183F8131DC3F8F85CD3F871
:1023D000FC1C5A4C4FF6FF0008405949014359482C
:1023E000C3F8FC1CC16841F08071C16056480168A7
:1023F00041F001010160102183F80F1D4FF0200C06
:1024000000210DF1180A002083F812CD04F11C03FD
:10241000CDE90A01246050466460E3612362CDF88F
:1024200010C0C4F82480CDF81880A56024616461D0
:10243000A5626567079508950995FEF7D9FB504693
:10244000FEF7AEFB089B6367404B4149DFF81C81F8
:10245000059AC8F8185023F007030B603D4B3E491E
:1024600084F84D5023F007030B603C4BC8F8003054
:1024700008F110036169C8F81030C8F8143040231F
:10248000A363E36604F13003616484F84F20A5661A
:10249000656684F84E20A56424640B6104F1540140
:1024A000616504F15801C8F80850C8F80C50636120
:1024B000A165E165A36184F84C2085F3118857E09C
:1024C0000010024000700040800E0020003D000817
:1024D000200E00200000024000000140A040000843
:1024E000C019002000040048BC4000080008004853
:1024F000D8400008000C0048F440000800100048D4
:1025000010410008001400482C410008000300504E
:1025100018120020E8110020F0110020040F002004
:10252000880E00200004004081140008003801409B
:10253000711400080044004010E000E0001A002080
:102540000003FA05F0ED00E0001000E0131C00208D
:102550005812002000A0002064120020710600081C
:1025600000E100E000366E0100070050C8110020B5
:1025700062B6A3699649996104F178004FF4B0718D
:10258000944B00F0F5FF944B8361944B0FCB8AE89A
:102590000F0093485146FEF71BF9FFF7C9FCDDF821
:1025A00010C08CF311888F4B8F4A5A60D3F830A03B
:1025B00093F800C0CDF810809A225A628A221A62DB
:1025C000DAF80020BCF1010F22F00102CAF8002065
:1025D00098463AD1DBF81030CDF814C043F400131C
:1025E000CBF81030CBF81050DBF81C30D8F82800AE
:1025F00043F40013CBF81C300A212A464346FEF769
:102600008FF82A464346D8F82C000A21FEF788F8AE
:10261000D8F8203043F48053C8F82030D8F824305C
:1026200043F48053C8F824304FF00042A02389F8C7
:102630001F33C9F88021C9F8002089F82033DDF85C
:1026400014C0C9F884C1C9F804C0D8F828301B6880
:102650000AF124029A60D8F82C301B680AF128028B
:102660009A60D8F80420536843F4404343F0900341
:10267000CAF800301368CAF81030DAF8003043F0B6
:102680000103CAF80030022388F800304FF0000838
:1026900088F31188202383F311883378534DC6F8CB
:1026A0000480012B55D002233370002585F3118857
:1026B0004FF0200888F311884D4BB3600823F36076
:1026C00003274C4B3361377000F0AAFFA3694A4AD5
:1026D00073611A623846FEF793FA85F3118842F265
:1026E0001070FEF7FDFB88F311881023F360DFF80C
:1026F0004481424BC6F808803361377000F090FF88
:1027000085F311883E4B3F481B604FF4E87140222F
:102710003D4B00F02DFF4FF4E87140223B4B3C480D
:1027200000F026FF4FF4E87140223A4B3A4800F09F
:102730001FFF4FF4E8714022384B394800F018FF72
:102740003848394B4FF4E871402200F011FF4646FB
:1027500036E12B46686B354A0521FDF7E1FF7B69C1
:1027600043F080537B616B6B1A68AB6A03F10C0119
:1027700091604FF4C0329A60EB6A2A6BC3F808800C
:102780004FF080519960916029494D684868401B1D
:10279000B0F5F07FFAD3996841F0004199609968EB
:1027A0000029FCDB916841F00041916091680029AB
:1027B000FCDB996841F0010199601968C907FCD5F3
:1027C000936843F0010393601368DB07FCD56AE765
:1027D00070400008D1060008953E0008203C000823
:1027E000880E0020D81B002050410008C01900208E
:1027F00086110020603C0008D4190020B03C00087D
:102800005412002038140020512B0008A12B00087E
:102810000816002041340008D8170020D11F0008F6
:1028200068120020500C0020B11F0008811200081F
:10283000001000E0860F002019460B68002B40F0C6
:10284000C680964F07F11000FEF792FB049B1B68B1
:10285000002B40F0DD80924B1B78012B40F0B080C4
:1028600000F0DEFD8F4B90491B88DFED908A024619
:102870008F4800F065FB00F0D3FD8E4B93ED008A8E
:10288000074618EE100AFDF78FFEDFED8B7A68EE33
:10289000277ACDE9000117EE900AFDF785FE3A464A
:1028A000CDE90201854982489FED858A00F048FB09
:1028B00000F0B6FD834B93ED009A074619EE100A1F
:1028C000FDF772FEF0EE487AE9EE287ACDE90001D4
:1028D00017EE900AFDF768FE3A46CDE902017A4903
:1028E000734800F02DFB00F09BFD784B07461868FD
:1028F000FDF75AFE3A46CDE9000175496C4800F0F3
:102900001FFB00F08DFD734B93ED009A0746A9EE77
:10291000288A19EE100AFDF747FECDE9000118EEEE
:10292000100AFDF741FE3A46CDE902016A496048C6
:10293000DFED6A8A9FED6A8A00F002FB00F070FD0D
:102940006849738802465A4800F0FAFA00F068FDB8
:102950006549F3880246564800F0F2FA00F060FD3F
:10296000738807EE903AF8EE677A074667EEA87A22
:1029700067EE887A17EE900AFDF716FE3A46CDE923
:1029800000015A494A4800F0DBFA00F049FDF3889B
:1029900007EE903AF8EE677A074667EEA87A67EE98
:1029A000887A17EE900AFDF7FFFD3A46CDE900015F
:1029B0003F484F4900F0C4FA44F62060FEF790FA11
:1029C000002D62D14B48FEF70BFB4B4935E75A68A7
:1029D000B2F5156FFFF430AF40F6571082421D6814
:1029E00081BFC3F85859A2F65812C3F85C2903F600
:1029F000581094BF0D604FF415621D4684BF0860E7
:102A00005A60049B45F8083B3A48FEF7B1FA0BE0E0
:102A100040F65810984700283FF41DAF4FF4156357
:102A20000760436000F10805002D3FF414AF202338
:102A300083F3118805F6EC03EB60304BC5F82C39B5
:102A40002F4BC5F8303940222E4BAA60C5F84C39BF
:102A5000EA63022362692B77002701236A612C61F4
:102A6000EB77AF636F63AB77AF61156105F124025C
:102A70006A6205F12802AA62EA626B7728466561FC
:102A800000F056FD87F31188E5E62B7F0F2B7FF4CE
:102A9000E2AE2846FEF7ECFA0025DCE6C81100207D
:102AA000840F0020141200209A3E00086666E63F5C
:102AB000880E0020840E0020E8C7F53BC03E0008C9
:102AC000000000425C120020F43E000810120020BA
:102AD0002E3F0008601200205A3F00085C8F5240D1
:102AE00000008039943F0008BB3F0008E23F000827
:102AF00009400008D8110020D0110020412D000805
:102B000090400008C902000800000000000000001A
:102B100070470000000000000000000000000000FE
:102B2000064B8B420BBF064B064919680B680BBF5F
:102B300089189B1819600B60704700BF860F002032
:102B4000B0190020B41900200000000000000000AF
:102B500008B5104B104A9B699A61104B01225A83A9
:102B60004FF0904314201A6912F0010F4FF08002C9
:102B70000CBF1A835A831B694FF0904213F0020F67
:102B80004FF0400304BF138380235383FEF7A8F95B
:102B9000E3E700BF001A0020A0410008000400483D
:102BA00000B5224B224A9B698BB09A610021092211
:102BB000684600F045FFFF238DF8003001238DF8B3
:102BC000013086238DF8023079238DF80730194BB8
:102BD0000FCB06AC84E80F0017482146FDF7F8FD3F
:102BE000042000F015FE082000F012FE69460922BC
:102BF0004FF0FF331148FEF76BF84FF4FA50FEF731
:102C00006FF903A909224FF0FF330D48FEF7E8F8EA
:102C10009DF80E209DF80F3043EA0223094A41F245
:102C200088301380FEF75CF9E0E700BF001A00204F
:102C3000A9410008303C0008040F0020340F002098
:102C4000100F0020141200200000000000000000FF
:102C5000002902DD0649074A08E0202383F3118892
:102C6000054B9A6A002383F311880449FFF700B9E2
:102C7000B2410008BE410008001A00202E4500089D
:102C8000002913B5044606DD19491A4A02B0BDE809
:102C90001040FFF7EDB81849184AFFF7E9F8204649
:102CA0001749184AFFF7E4F820461749174AFFF773
:102CB000DFF820461649174AFFF7DAF8204616498A
:102CC000164AFFF7D5F820461549164AFFF7D0F8FF
:102CD00020461549154AFFF7CBF8154B00932046BF
:102CE0001449154A154BFFF7C3F802B010BD00BFD9
:102CF000B2410008C6410008CB410008DE4100088F
:102D0000E4410008F7410008174200082A42000881
:102D1000334200084642000851420008644200085D
:102D2000794200088C420008A5420008B842000819
:102D3000F0420008C9420008E0420008EC420008E6
:102D40002DE9F0416D4B6E4A9B696E4990E8900009
:102D500098B09A612046FFF78BF820466A49FFF742
:102D600087F808AEB046236820465B680DF107017E
:102D70000122984700283CD09DF80710042904D16F
:102D800020466249FFF774F833E0082901D07F2913
:102D900012D14645E7D0236820469B6898472368B0
:102DA00020219B682046984723689DF807109B6860
:102DB00020469847013ED6E70D290BD154492046BD
:102DC0000025FFF755F84046357002A900F078FD60
:102DD000804617E01F29C6D90DF15F039E42C2D27B
:102DE000236820469B6898479DF80730337001366A
:102DF000B9E720464749FFF73BF85EE003AB43F8ED
:102E000025000135002002A900F05AFD38B1042D3B
:102E1000F4D120464049FFF72BF84FF0000818ABDB
:102E200003EB8503002243F8542CB8F1000F94D033
:102E300040463A4900F054FE28B9002D3DD02046C6
:102E40003749364A08E04046364900F049FE28BB7B
:102E5000204625B13249334AFFF70AF87DE7324967
:102E6000FFF706F8314B013503EBC50353F8082C87
:102E700022B120462E49FEF7FBFFF3E717B92046A3
:102E8000234968E707F10805083555F8102C002A92
:102E9000F5D020462649FEF7EBFFF5E7234E3068D4
:102EA000C0B1414600F01CFE08B10836F7E7736870
:102EB0002046294603AA98474FE7202383F3118829
:102EC00000211C48FEF72CF80020FEF741FA18B04C
:102ED000BDE8F0813FB9184920464246FEF7C8FFD9
:102EE0002046164937E73E4630680028F3D0414671
:102EF00000F0F6FD0028DAD00836F5E7001A0020C9
:102F0000F9420008FF420008144300081A43000871
:102F10002B3F00081D430008264300083B430008E0
:102F2000B24100084043000845430008040800205F
:102F30005A430008541200205E4300086143000811
:102F40000EB403B503AA52F8041B0192FEF790FEDB
:102F500002B05DF804EB03B0704700000000000011
:102F6000002908B504DD0A49BDE80840FFF7E8BFBD
:102F70000849FFF7E5FFBFF34F8F0749074BCA68C2
:102F800002F4E0621343CB60BFF34F8FFEE700BF54
:102F9000664300087643000800ED00E00400FA05EF
:102FA000022901D01E4938E013681B78312B17D154
:102FB00053681B78312B08D11A4B1B494FF4004240
:102FC0001A834FF480421A8327E0302B27D1154B08
:102FD00016494FF400425A834FF480425A831CE052
:102FE000322B1CD153681B78312B0AD1104B11495D
:102FF0004FF480721A8303F580634FF400521A83F2
:103000000BE0302B0BD10A4B0B494FF480725A83E3
:1030100003F580634FF400525A83FFF791BF704766
:103020008543000800080048A6430008B54300088F
:1030300000040048C5430008D44300080000000015
:1030400038B521B10749BDE83840FFF779BF4FF0E7
:1030500090444FF48075658342F6E060FDF740FFD1
:10306000258338BDE4430008000000000000000094
:10307000012938B505462BD11468204600F058FDCB
:10308000062825D12C4B22781B681A44527812F05E
:10309000440F1DD062781A44527812F0440F17D0B2
:1030A000A2781A44527812F0440F11D0E2781A44F0
:1030B000527812F0440F0BD022791A44527812F051
:1030C000440F05D0627913445B7813F0440F05D1A7
:1030D00028461A49BDE83840FFF732BF0025184B93
:1030E0002046294610221D7000F09AFC2022C0F3D1
:1030F000074482F31188134BD96841F00201D9606B
:1031000099698C6385F31188C0F3072482F31188D1
:10311000D96841F00401D9609969CC6385F31188BD
:10312000C0B282F31188DA6842F00102DA609B696A
:10313000586385F3118838BD1C080020F54300084A
:1031400000080020F0110020000000000000000036
:10315000012905D113681B78A3F13002012A02D995
:103160000449FFF7EDBE312B034B16BF0022197047
:103170001A70704715440008840F002000000000FA
:10318000F0B5042989B00546144605D113681B78AB
:10319000722B06D0772B04D028463D49FFF7D0FE8E
:1031A00073E060683B4F0021102200F039FC0021E1
:1031B000C0F346061022A06800F032FC00218DF812
:1031C0000C001022E06800F02BFC23688DF80D0045
:1031D0001B783148722BB4B237D1FDF701FF9DF84F
:1031E0000D300093204603A9012204AB00F090FAB1
:1031F00004463860002834D1284628499DF80C3010
:103200007200FFF79DFE9DF80D30A34215D908AB63
:103210002344284613F8102C2149FFF791FE01346E
:103220009DF80D30E4B2A342EDD9E30728464CBF28
:103230001C491D49FFF784FEE5E728461B49FFF7B7
:103240007FFE1548FDF794FE1FE0FDF7C9FE002341
:103250000093204603A9022204AB00F059FA38601B
:1032600040B1134B13499A68134B28461A60FFF775
:1032700067FEE6E79DF80D2000929DF80C300F499F
:1032800028467200FFF75CFEDBE709B0F0BD00BF27
:1032900028440008AC190020E41B00207D440008ED
:1032A0008D44000894440008964400082B3F000811
:1032B000D81B00206C440008B8190020984400086E
:1032C000002907B505DD094903B05DF804EBFFF7F8
:1032D00037BE074B07491A68043B1B680968009111
:1032E0000549FFF72DFE03B05DF804FBAF4400086D
:1032F000B4F7FF1FACF7FF1FBF4400080000000039
:10330000F0B5002985B0074605DD1D4905B0BDE8CB
:10331000F040FFF715BE1B49FFF712FE202383F391
:103320001188194E3469A37F0133A377002383F3F7
:103330001188A3680093A37F1449013B0193227F66
:10334000134B53F822300293E36838462246FFF7C6
:10335000F7FD202383F311882569B54218BFAB7FA1
:103360004FF000021ABF0133AB77154682F3118884
:103370002046FDF77DFE0DB12C46DAE705B0F0BD25
:10338000DB440008EC440008001A00201445000843
:103390006041000800000000000000000000000084
:1033A000002970B5054604DD1449BDE87040FFF7FB
:1033B000C7BD1348FDF714FE0024124B26461B68B8
:1033C0001BB15A6801361444F9E70D48FDF7D0FDEA
:1033D0000D4B0E491A680E4B1B682846D21AFFF790
:1033E000AFFD324628460B49FFF7AAFD2846224684
:1033F0000949BDE87040FFF7A3BD00BF3445000890
:10340000D8110020D011002064120020414500088E
:10341000581200205F4500087745000800000000B2
:10342000202383F31188034B986A002383F31188C8
:10343000704700BF001A00200000000000000000DC
:103440007FB5304B304A9B6930489A61FDF7C8FD23
:1034500026238DF80C303B238DF80D30002300938C
:10346000602003A9022204AB00F052F9284C20602E
:1034700068B1284B9D68284B1D60FFF7D1FF602382
:1034800002460093254826492B46FFF759FD1F4861
:10349000FDF76EFD42F6F820FDF722FD1B48FDF713
:1034A0009FFD052301228DF80D300093602003A9B4
:1034B00004AB8DF80C2000F02BF920600028D8D147
:1034C0009DF811309DF810201B0143EA02339DF84E
:1034D000122043EA121307EE903A124B9DF8132084
:1034E000FAEECF7AC3ED007A9DF814301B0943EA57
:1034F000021307EE903A0C4BFAEECE7AC3ED007A47
:10350000C5E700BF001A002095450008E41B002015
:10351000A8190020D81B0020BC190020880E00200C
:10352000323E0008840E00205C12002000000000E3
:1035300038B50C4D816800230362AB699A689142EB
:10354000044603D8BDE83840FDF7DABC1846FDF75D
:10355000D7FC01230146AC6123772046BDE8384003
:10356000FCF7A6BE001A00200000000000000000CA
:1035700038B50446202585F3118864390144C160BB
:103580000B64114B0B66002502234D640377012366
:10359000C37783770D4B8260C2635A6903614261CE
:1035A00045778563456385611061586100F12403A7
:1035B000436200F128038362C362FFF7B9FF85F31A
:1035C0001188204638BD00BFC9020008001A00203B
:1035D0000346124A43F8042B00F10C024360012316
:1035E0000372C26000F154030261002242618361F0
:1035F00043620362826200F1640300F13002C3613E
:1036000002634263C36310228364436400F1740362
:10361000C06282630364C16400657047304600087D
:103620002949F0B5D1F828E00B69DEF8082058697F
:10363000DE688D6B02F470320243187846F00106A2
:1036400040B1C868012842F4005294BF45F02005FB
:1036500045F02405486BCF6804688868E0605888A6
:103660004008474367602560256845F001052560EF
:10367000CEF80820CA6A096B14681460902454605C
:103680001C6914629C695461DC6994611C6A01388C
:10369000044314635C6A54639C6A9463DC6AD46375
:1036A0001C6B4C615C6B8C619C6B20430863D86B1A
:1036B0004863186C5B6C8863CB63D660936843F097
:1036C00004039360F0BD00BFC0190020000000009B
:1036D0000D4AD36A10B51B68146B586811466268AE
:1036E000496822F0FF728968FF2822F4803294BF73
:1036F00000234FF0807342EA010288BFFF2013438A
:1037000043EA0043636010BDD81B002000000000A6
:10371000F8B5202484F311882B4C0026032525704E
:10372000A660256B86F31188E66A676A366837609B
:10373000F1607260A26A216A1268244E1160D3603F
:10374000069B5360B26A202383F31188AB69190486
:1037500008D5B36A9B1AB3F5FA7F2AD2002383F304
:103760001188F0E76268236B9268174F120558BF03
:1037700040005860FFF7ACFFE36A1A68136843F033
:10378000010313602B6843F040032B606B6843F424
:1037900000536B60B369E36107F11C021A620320F6
:1037A0002821FDF745FA431C08D16B6843F4804398
:1037B0006B60052323704FF0FF3001E002233B7064
:1037C000002383F31188F8BDD81B0020001A0020C5
:1037D0000E4A936A10461B6830B55C68156B4368E7
:1037E0006A689B6843F4806022F0FF73FF2C23F427
:1037F000803394BF00214FF0807143EA000388BFFB
:10380000FF240B4343EA04436B6030BDD81B002008
:1038100070B500210224C3072CD501F00705AD00C7
:1038200007230F22AB40AA404FF09045072994BFD1
:103830002E6A6E6A6FEA020295BF3240324013432D
:10384000134394BF2B626B624FF0904301225D687B
:103850008A4025EA02025A604E0003229D68B24067
:10386000D24315409D60DD681540DD601D682A402B
:1038700022431A60400802D0A4000131CBE770BD9A
:10388000F0B500F10B040D462346B1FBF2F702FB45
:10389000171101F13006392EC8BF01F1370603F8C0
:1038A000016DB5FBF2F53946002DEED1421EE11A4D
:1038B00013F8015B02F8015FA342F9D10844F0BD9F
:1038C000F8B50E4600B1086035680DB90020F8BDA6
:1038D0000A49284600F084F92C1807460749204673
:1038E00000F056F908B9306003E0431C3360002350
:1038F0000370EB5D002BE9D02046F8BD20460008A0
:103900002DE9F04F444C83460E46D4F800E000E029
:103910002646344614F8015B0EEB0500407800F0B3
:10392000080000F0FF080028F2D12D2D4BD02B2DE0
:1039300004BF7578B41C1BB1102B60D09A4603E00D
:10394000302D54D00A239A46B8F1000F14BF4FF01F
:1039500000406FF000400027B0FBFAF9BC460AFBBC
:1039600019000CE0303DAB4219DD7E1C05D0CC4582
:1039700024D821D00AFB0C5C012714F8015B0EEB64
:103980000506767816F0040FECD116F0030606D083
:10399000012E0CBF37265726AD1BAB42E5DC7B1C46
:1039A00016D0C8F100008CEA000040444AB107B1CB
:1039B000611E1160BDE8F08F8542DBDD4FF0FF37FF
:1039C000DBE7BDE8F08FB41C75784FF00108B2E773
:1039D000B8F1000F4FF0220314BF4FF000406FF01A
:1039E0000040CBF80030002AE2D1BDE8F08F237808
:1039F00003F0DF03582B09D008239A46A4E7302DA3
:103A00009CD1207800F0DF00582897D14FF0100AA1
:103A100065785346023497E71C0800200000000038
:103A200030B4044C0D46134601462A46206830BC8B
:103A3000FFF766BF480C00200000000000000000F7
:103A400070B4840746D0541E002A41D0CDB203463C
:103A500002E0621EE4B3144603F8015B9A07F8D152
:103A6000032C2ED9CDB245EA05250F2C45EA054594
:103A700019D903F110022646103E0F2E42F8105CB1
:103A800042F80C5C42F8085C42F8045C02F1100257
:103A9000F2D8A4F1100222F00F0204F00F04103249
:103AA000032C13440DD91E462246043A032A46F835
:103AB000045BFAD8221F22F003020432134404F0FC
:103AC00003042CB1C9B21C4403F8011BA342FBD16F
:103AD00070BC704714460346C2E700BF00000000F8
:103AE0000F4B30B41D6802E0D21A16D1ABB110F8FA
:103AF000014B2B1922465B7803F00303012B11F8CD
:103B0000013B08BF04F12002EC18647804F00304C0
:103B1000012CE9D12033D21AE9D0104630BC7047CD
:103B20001C08002000000000000000000000000051
:103B300020F0030110F00300C0F1000051F8043B35
:103B400000F1040C4FEACC0C6FF000021CBF22FA0B
:103B50000CF213434FF0010C4CEA0C2C4CEA0C4CC9
:103B6000A3EB0C0222EA030212EACC1204BF51F8C2
:103B7000043B0430F4D0C2F1000102EA0102B2FABF
:103B800082F2C2F11F0200EBD20070470000000079
:103B900030B40478ECB10D78ADB1AC420ED00A4629
:103BA00001E09C4209D012F8013F002BF9D110F836
:103BB000014F002CF0D1157800E02546002D08BFFC
:103BC000002030BC704710F8014F0A46002CE3D1AA
:103BD000F1E7204630BC7047000000000000000004
:103BE00070B40478A4B10E7805464EB1B4420AD040
:103BF0000A4601E09C4206D012F8013F002BF9D1A1
:103C0000281A70BC704715F8014F002CEDD1F7E76A
:103C10002046F6E700000000000000000000000061
:103C200000C2010000000000004000000000000091
:103C3000802500000000000000400000000000009F
:103C4000009600000000000000400000000000009E
:103C5000286E756C6C290000000000000000000058
:103C60000000040000000000112B000800200000EC
:103C70000000FF0F01000000000000000000000035
:103C8000C0810000000000000000000000000000F3
:103C900000000000000000000072000000000000B2
:103CA0000000000000000000000000000000000014
:103CB00001001000212B0008112B0008002000003B
:103CC0000000FF0F01008001000080040000B4002C
:103CD000C0811C0807024500000000000000000031
:103CE000200100000000B4008010080142104100D3
:103CF00000000000000000000000000000000000C4
:103D0000080002400400024000000B001C000240BA
:103D10000400024004010C00300002400400024094
:103D200008020D0044000240040002400C030E0093
:103D3000580002400400024010040F006C000240D2
:103D400004000240140510008000024004000240FC
:103D5000180611000804024004040240000738005D
:103D60001C040240040402400408390030040240EC
:103D70000404024008093A004404024004040240DA
:103D80000C0A3B005804024004040240100B3C00A3
:103D900030400008A1330008344000080133000817
:103DA0003C400008C132000843400008813100084F
:103DB00047400008513100084B40000871300008AE
:103DC0004F4000084130000857400008A12F00086C
:103DD0005B400008612F00080000000000000000A8
:103DE0006761735F73656E736F725F74737400687D
:103DF000756D69646974795F72656164005B253013
:103E00003130645D206932632077726974652065A2
:103E100072726F72203A202530322E32782061740F
:103E20002061646472657373202530322E32780D00
:103E30000A005B25303130645D2069326320657291
:103E4000726F72203A202530322E32782061742031
:103E500061646472657373202530322E32780D0AE6
:103E6000005B25303130645D20693263207265610A
:103E700064206572726F72203A202530322E3278BB
:103E80002061742061646472657373202530322E62
:103E900032780D0A0069646C65000A5B25303130A8
:103EA000645D20434F3220636F6E63656E74726190
:103EB00074696F6E203A2025642070706D0D0A00C1
:103EC0005B25303130645D206162736F6C757465A1
:103ED000207072657373757265203A2025362E3214
:103EE00066205061202825332E3266206D6D48678C
:103EF000290D0A005B25303130645D2074656D70DA
:103F000065726174757265203120202020203A206E
:103F100025322E3266206465672E20432028253303
:103F20002E3266206465672E2046290D0A005B2527
:103F3000303130645D2072656C617469766520682B
:103F4000756D6964697479203A2025322E326620B5
:103F500070657263656E740D0A005B2530313064E4
:103F60005D2074656D7065726174757265203220B4
:103F7000202020203A2025322E3266206465672ECC
:103F80002043202825332E3266206465672E204684
:103F9000290D0A005B25303130645D2047415331E3
:103FA00020414443207261772020202020203A20A5
:103FB00030782530332E33780D0A005B25303130D0
:103FC000645D204741533220414443207261772091
:103FD00020202020203A2030782530332E33780DD1
:103FE0000A005B25303130645D2047415331204168
:103FF000444320766F6C7420202020203A20253006
:10400000312E336620560D0A005B25303130645D59
:1040100020474153322041444320766F6C74202066
:104020002020203A202530312E336620560D0A00FC
:104030006D656D00746872656164730073657269A3
:10404000616C00693263006C6F6700726762006EBA
:104050006164706B657900676173007265626F6F90
:1040600074000000000000000000000000000000DC
:104070006D61696E00160318040444080C101418CE
:10408000001C1D1E1F0000000000000000000000BA
:10409000880E0020903D0008000000000000000095
:1040A000005FA92A000100000000003C5550146484
:1040B000FFFF00000000000070E70E0001A0A1005B
:1040C000000000000000000045555515FFFE0000EF
:1040D00000000044007700000000005400000000D1
:1040E0000000000054555555FF1F0000000000005F
:1040F00000000000000000000000000000000000C0
:1041000055555555FFFF000000000000000000005D
:10411000000000000000000000000000555555554B
:10412000FFFF000000000000000000000000000091
:10413000000000000000000050555555FFFF000032
:10414000000000000000000000000000000000006F
:10415000150F42F000000000000000000000000009
:10416000A3450008A9450008B1450008B945000865
:10417000C3450008CA450008D0450008D6450008D8
:10418000DD450008E6450008ED450008F545000856
:10419000FE450008064600080D46000813460008C4
:1041A000626C696E6B65723100636F325F7265615C
:1041B000640055736167653A2025730D0A007379B1
:1041C0007374696D6500696E666F004B65726E652C
:1041D0006C3A2020202020202025730D0A00332E49
:1041E000302E3300436F6D70696C65723A20202069
:1041F000202025730D0A0047434320342E392E33E7
:104200002032303135303532392028707265726590
:104210006C656173652900417263686974656374D4
:104220007572653A2025730D0A0041524D76372D7F
:104230004D4500436F72652056617269616E743A34
:104240002025730D0A00436F727465782D4D344636
:1042500000506F727420496E666F3A20202020252E
:10426000730D0A00416476616E636564206B65724C
:104270006E656C206D6F646500506C6174666F7262
:104280006D3A202020202025730D0A0053544D3311
:104290003246333033784320416E616C6F6720269D
:1042A0002044535000426F6172643A202020202045
:1042B00020202025730D0A00414141414141412008
:1042C0004F574C2076302E31004275696C64207453
:1042D000696D653A2020202573257325730D0A002A
:1042E0004D6179203235203230313700202D2000C9
:1042F00031393A32383A3337007368656C6C000DE7
:104300000A43686962694F532F5254205368656CA1
:104310006C0D0A006F776C3E20005E44000D0A6C45
:104320006F676F757400746F6F206D616E792061B7
:104330007267756D656E74730D0A00657869740037
:1043400068656C7000436F6D6D616E64733A2068D0
:10435000656C7020657869742000257320002573D2
:1043600000203F0D0A0055736167653A207265624F
:104370006F6F740D0A005265626F6F74696E672EFD
:104380002E2E0D0A0055736167653A206761732010
:104390003C73656E736F725F6E623E205B317C3082
:1043A0007C725D0D0A00506F776572204F4E20477A
:1043B00053310D0A00506F776572204F46462047F3
:1043C00053310D0A00506F776572204F4E204753CE
:1043D000320D0A00506F776572204F4646204753D2
:1043E000320D0A0055736167653A206E6164706B27
:1043F00065790D0A0055736167653A20726762201E
:104400003C3234626974735F6865785F76616C759D
:10441000653E0D0A0055736167653A206C6F672031
:104420005B317C305D0D0A0055736167653A206928
:104430003263205B777C725D205B646576696365BF
:104440005F616464725D205B7265675F6164647262
:104450005D205B646174617C6E6220627974657357
:1044600020746F20726561645D0D0A006572726F61
:1044700072203A202530322E32780D0A0025303253
:104480002E3278722530322E32783E20002530329E
:104490002E3278002C003B002530322E32787225E7
:1044A00030322E32783C2530322E32780D0A0055CB
:1044B000736167653A2073657269616C0D0A004D1E
:1044C00043552073657269616C203A202530387835
:1044D00025303878253038780D0A005573616765C6
:1044E0003A20746872656164730D0A0020202020F0
:1044F0006164647220202020737461636B20707289
:10450000696F2072656673202020202073746174A7
:10451000650D0A002530386C78202530386C7820FD
:1045200025346C752025346C752025397320256C55
:10453000750D0A0055736167653A206D656D0D0A4A
:1045400000636F72652066726565206D656D6F72C0
:1045500079203A2025752062797465730D0A006808
:1045600065617020667261676D656E7473202020CE
:104570003A2025750D0A00686561702066726565D0
:1045800020746F74616C20203A2025752062797444
:1045900065730D0A0070726573737572655F72657D
:1045A00061640052454144590043555252454E54AE
:1045B00000575453544152540053555350454E44A0
:1045C00045440051554555454400575453454D0009
:1045D00057544D5458005754434F4E4400534C4584
:1045E0004550494E47005754455849540057544F79
:1045F00052455654005754414E4445565400534E6C
:10460000444D53475100534E444D53470057544D6A
:1046100053470046494E414C000000000000000096
:104620002009000000000000000000000000000061
:10463000610D0008610E0008D10D0008D10E0008C0
:10464000C10D0008C10E0008510D0008510E0008F0
:104650000020202020202020202028282828282052
:10466000202020202020202020202020202020204A
:1046700020881010101010101010101010101010B2
:1046800010040404040404040404041010101010A2
:10469000101041414141414101010101010101016C
:1046A00001010101010101010101010110101010BE
:1046B000101042424242424202020202020202023E
:1046C0000202020202020202020202021010101092
:1046D00020000000000000000000000000000000BA
:1046E00000000000000000000000000000000000CA
:1046F00000000000000000000000000000000000BA
:1047000000000000000000000000000000000000A9
:104710000000000000000000000000000000000099
:104720000000000000000000000000000000000089
:104730000000000000000000000000000000000079
:104740000000000000000000000000000000000069
:104750000000000000000000000000000000000059
:044760004300000012
:1047680001000000C6410008812C0008BE41000875
:10477800512C00080000000000000000504600080E
:10478800000000000C0B0020740B0020DC0B002044
:104798000000000000000000000000000000000011
:1047A8000000000000000000000000000000000001
:1047B8000000000060470008000000000000000042
:1047C80000000000000000000000000000000000E1
:1047D80000000000000000000000000000000000D1
:1047E80000000000000000000000000000000000C1
:1047F80000000000000000000000000000000000B1
:1048080000000000000000000000000000000000A0
:104818000000000000000000000000000000000090
:10482800000000000000000001000000000000007F
:104838000E33CDAB34126DE6ECDE05000B00000044
:104848000000000000000000000000000000000060
:104858000000000000000000000000000000000050
:104868000000000000000000000000000000000040
:104878000000000000000000000000000000000030
:0C4BA800000000000000000020080020B9
:04000005080001A14D
:00000001FF
